:08000000803102288731FD2F39
:100E48000230873155278731403087315527873120
:100E5800C030873155278731080022000C14210043
:100E68000C1022008C1421008C1022000C1521007B
:100E78000C1122000C1221000C12080087313127B6
:100E8800873187312427873187319E278731D030B2
:100E9800FB00CA30890B4E2FFB0B4E2F482F803199
:100EA8000228F90022000C140B30F7006230890B7D
:100EB8005B2FF70B5B2F003222000C100B30F70072
:100EC8006230890B652FF70B652F00327908F70020
:100ED800F8017708F0007808F10087317527873125
:100EE8000800F60122008C10760AF2007108F4005E
:100EF8007008F300822F740DF40CF30CF20B7F2FA3
:100F080073080139F500F50DF50D22000C0875067A
:100F1800FB3975068C008C140830890B912F013031
:100F2800F2007208F60708307602031C9C2F9D2FEA
:100F3800762F08000030840088308500003FF000DC
:100F4800013FF1008731752787310030F000F1004B
:100F58008731752787310230840088308500003F4B
:100F6800F000013FF1008731752787310030F0002C
:100F7800F100873175278731043084008830850077
:100F8800003FF000013FF1008731752787310030BD
:100F9800F000F100873175278731063084008830EA
:100FA8008500003FF000013FF10087317527873148
:100FB8000030F000F10087317527873122000C14CA
:100FC8000B30FA006230890BE72FFA0BE72F00325B
:100FD80022000C100B30FA006230890BF12FFA0B4B
:100FE800F12F00328F3087315527873122000C14BA
:100FF800080020008731422F3F3400340634003483
:101008005B3400344F340034663400346D340034BB
:101018007D340034073400347F3400346F340034B6
:020000040001F9
:04000E00E42FFF1FBD
:00000001FF
