:040000008031132810
:100008007E1480312000111F0A280B281128210096
:10001800111320001113210011177E1009008031DF
:10002800152820308400003085001130823172227A
:1000380080317E10200081312A290230823130221D
:1000480080314030823130228031C03082313022DC
:1000580080310D30890B2E28000020003008683EC2
:10006800840082300318013E8500000882310C228A
:100078008031003082310C22803120002F08683E08
:10008800840082300318013E8500000882310C226A
:100098008031003082310C22803120002E08683EE9
:1000A800840082300318013E8500000882310C224A
:1000B8008031003082310C22803120002D08683ECA
:1000C800840082300318013E8500000882310C222A
:1000D8008031003082310C2280313430F600F23029
:1000E800890B7428F60B742822000C140B30F600C8
:1000F8006230890B7D28F60B7D28003222000C1017
:100108000B30F6006230890B8728F60B87280032FF
:100118008F3082313022803122000C140800E83000
:10012800F6000330F70020003208F9003108F80023
:1001380081316921803176082000B0006430F600F2
:100148000030F7003208F3003108F200E830F00020
:100158000330F1008131A52180317108F900700860
:10016800F80081316921803176082000AF000A301B
:10017800F6000030F7003208F3003108F20064306E
:10018800F0000030F1008131A52180317108F900BB
:100198007008F80081316921803176082000AE00AE
:1001A8000A30F0000030F1003208F3003108F200A4
:1001B8008131A521803170082000AD00080005308C
:1001C80020002C020318E928EA28FC280330813192
:1001D800D921803120002C35203E86008701700807
:1001E800C03F7108C13F0130B1003108AC0729296F
:1001F8000530F6000030F7000830203E8600870101
:100208000630203E8400850124082207B100250815
:10021800233DB200003F3107B300013F323DB40037
:10022800403F3307B500413F343DB600200835074D
:10023800F8002108363DF9008131692180317708BD
:100248002000AB007608AA00AC01080082315B22CE
:10025800813182314A22813115302000B8004B307B
:10026800B700BE30890B3629B70B3629B80B3629AB
:1002780000008031E3208131D0302000B700C93040
:10028800890B4429B70B4429003220002B08B200FF
:100298002A08B100803193208131D0302000B70086
:1002A800C930890B5529B70B5529003280312120D7
:1002B8008131D0302000B700C930890B6129B70BD4
:1002C800612900323D2980311328FB01FC017608A1
:1002D8007704031970297129A029FD01FD0A7D29D8
:1002E8000130F635F70D890B75290130FA007A08C7
:1002F800FD07F71F8029812974290130FB35FC0D82
:10030800890B822977087902031D8C2976087802DF
:10031800031C8F29902995297608F8027708F93B5C
:100328007B140130F736F60C890B96290130FD0253
:10033800031D9F29A02981297C08F7007B08F60066
:100348000800700871040319AA29AB29D429F501FA
:10035800F50AB7290130F035F10D890BAF290130C5
:10036800F4007408F507F11FBA29BB29AE297108F2
:100378007302031DC12970087202031CC429C52910
:10038800C9297008F2027108F33B0130F136F00C0C
:10039800890BCA290130F502031DD329D429BB29A9
:1003A8007308F1007208F0000800F9007908F200FB
:1003B800F20DF20D21001D087206833972069D00A8
:1003C8003430F200F230890BE729F20BE7292100DB
:1003D8009D149D18F029F129ED291B08F20006301B
:1003E800F236890BF4297208F300F4011C08F500B1
:1003F800F601F535F60DF535F60D73087504F700B9
:1004080074087604F8007708F0007808F10008000E
:10041800F200F30122008C107208F000730A152A0A
:10042800F036890B142A70080139F100F10DF10D2D
:100438000C087106FB3971068C008C140830890B86
:10044800232A0130F0007008F30708307302031CF8
:100458002E2A2F2A0E2A0800F50022000C140B3031
:10046800F4006230890B362AF40B362A0032220057
:100478000C100B30F4006230890B402AF40B402A30
:100488000032750882310C2282310800F0302100D8
:10049800990023000C16503021009E008B170B1773
:1004A80011172000111321009D101D1408002200AF
:1004B8000C1421000C1022008C1421008C10220036
:1004C8000C1521000C1108003F3406345B344F34FE
:1004D80066346D347D3407347F346F3464008001B2
:0804E8000131890B732A003475
:020000040001F9
:04000E00E42FFF1FBD
:00000001FF
